{
  "_format": "hh-sol-artifact-1",
  "contractName": "UBToken",
  "sourceName": "contracts/UBToken.sol",
  "abi": [
    {
      "anonymous": false,
      "inputs": [
        {
          "indexed": false,
          "internalType": "uint256",
          "name": "numeroEtudiant",
          "type": "uint256"
        },
        {
          "indexed": false,
          "internalType": "string",
          "name": "cours",
          "type": "string"
        },
        {
          "indexed": false,
          "internalType": "uint256",
          "name": "debut",
          "type": "uint256"
        },
        {
          "indexed": false,
          "internalType": "uint256",
          "name": "signature",
          "type": "uint256"
        },
        {
          "indexed": false,
          "internalType": "string",
          "name": "validePar",
          "type": "string"
        },
        {
          "indexed": false,
          "internalType": "bool",
          "name": "ajoutManuel",
          "type": "bool"
        },
        {
          "indexed": false,
          "internalType": "string",
          "name": "etat",
          "type": "string"
        }
      ],
      "name": "EmargementEnregistre",
      "type": "event"
    },
    {
      "inputs": [
        {
          "internalType": "uint256",
          "name": "",
          "type": "uint256"
        }
      ],
      "name": "emargements",
      "outputs": [
        {
          "internalType": "uint256",
          "name": "numeroEtudiant",
          "type": "uint256"
        },
        {
          "internalType": "string",
          "name": "cours",
          "type": "string"
        },
        {
          "internalType": "uint256",
          "name": "debut",
          "type": "uint256"
        },
        {
          "internalType": "uint256",
          "name": "signature",
          "type": "uint256"
        },
        {
          "internalType": "string",
          "name": "validePar",
          "type": "string"
        },
        {
          "internalType": "bool",
          "name": "ajoutManuel",
          "type": "bool"
        },
        {
          "internalType": "string",
          "name": "etat",
          "type": "string"
        }
      ],
      "stateMutability": "view",
      "type": "function"
    },
    {
      "inputs": [
        {
          "internalType": "uint256",
          "name": "numeroEtudiant",
          "type": "uint256"
        },
        {
          "internalType": "string",
          "name": "cours",
          "type": "string"
        },
        {
          "internalType": "uint256",
          "name": "debut",
          "type": "uint256"
        },
        {
          "internalType": "uint256",
          "name": "signature",
          "type": "uint256"
        },
        {
          "internalType": "string",
          "name": "validePar",
          "type": "string"
        },
        {
          "internalType": "bool",
          "name": "ajoutManuel",
          "type": "bool"
        },
        {
          "internalType": "string",
          "name": "etat",
          "type": "string"
        }
      ],
      "name": "enregistrerEmargement",
      "outputs": [],
      "stateMutability": "nonpayable",
      "type": "function"
    },
    {
      "inputs": [
        {
          "internalType": "uint256",
          "name": "index",
          "type": "uint256"
        }
      ],
      "name": "getEmargement",
      "outputs": [
        {
          "internalType": "uint256",
          "name": "",
          "type": "uint256"
        },
        {
          "internalType": "string",
          "name": "",
          "type": "string"
        },
        {
          "internalType": "uint256",
          "name": "",
          "type": "uint256"
        },
        {
          "internalType": "uint256",
          "name": "",
          "type": "uint256"
        },
        {
          "internalType": "string",
          "name": "",
          "type": "string"
        },
        {
          "internalType": "bool",
          "name": "",
          "type": "bool"
        },
        {
          "internalType": "string",
          "name": "",
          "type": "string"
        }
      ],
      "stateMutability": "view",
      "type": "function"
    },
    {
      "inputs": [],
      "name": "getTotalEmargements",
      "outputs": [
        {
          "internalType": "uint256",
          "name": "",
          "type": "uint256"
        }
      ],
      "stateMutability": "view",
      "type": "function"
    }
  ],
  "bytecode": "0x6080604052348015600f57600080fd5b50610dfb8061001f6000396000f3fe608060405234801561001057600080fd5b506004361061004c5760003560e01c806311a490c1146100515780631d67285d1461006d57806363ec82bd146100a3578063b55da509146100d9575b600080fd5b61006b60048036038101906100669190610859565b6100f7565b005b6100876004803603810190610082919061094f565b610225565b60405161009a9796959493929190610a19565b60405180910390f35b6100bd60048036038101906100b8919061094f565b61048e565b6040516100d09796959493929190610a19565b60405180910390f35b6100e1610685565b6040516100ee9190610a9d565b60405180910390f35b60006040518060e0016040528089815260200188815260200187815260200186815260200185815260200184151581526020018381525090806001815401808255809150506001900390600052602060002090600702016000909190919091506000820151816000015560208201518160010190816101769190610cc4565b50604082015181600201556060820151816003015560808201518160040190816101a09190610cc4565b5060a08201518160050160006101000a81548160ff02191690831515021790555060c08201518160060190816101d69190610cc4565b5050507ff9d60a2e98ad52885499fe6326d3e88a77b0b30ebf03250ffa6e129df965cc1b878787878787876040516102149796959493929190610a19565b60405180910390a150505050505050565b60006060600080606060006060600080898154811061024757610246610d96565b5b90600052602060002090600702016040518060e00160405290816000820154815260200160018201805461027a90610ae7565b80601f01602080910402602001604051908101604052809291908181526020018280546102a690610ae7565b80156102f35780601f106102c8576101008083540402835291602001916102f3565b820191906000526020600020905b8154815290600101906020018083116102d657829003601f168201915b50505050508152602001600282015481526020016003820154815260200160048201805461032090610ae7565b80601f016020809104026020016040519081016040528092919081815260200182805461034c90610ae7565b80156103995780601f1061036e57610100808354040283529160200191610399565b820191906000526020600020905b81548152906001019060200180831161037c57829003601f168201915b505050505081526020016005820160009054906101000a900460ff161515151581526020016006820180546103cd90610ae7565b80601f01602080910402602001604051908101604052809291908181526020018280546103f990610ae7565b80156104465780601f1061041b57610100808354040283529160200191610446565b820191906000526020600020905b81548152906001019060200180831161042957829003601f168201915b5050505050815250509050806000015181602001518260400151836060015184608001518560a001518660c00151975097509750975097509750975050919395979092949650565b6000818154811061049e57600080fd5b90600052602060002090600702016000915090508060000154908060010180546104c790610ae7565b80601f01602080910402602001604051908101604052809291908181526020018280546104f390610ae7565b80156105405780601f1061051557610100808354040283529160200191610540565b820191906000526020600020905b81548152906001019060200180831161052357829003601f168201915b50505050509080600201549080600301549080600401805461056190610ae7565b80601f016020809104026020016040519081016040528092919081815260200182805461058d90610ae7565b80156105da5780601f106105af576101008083540402835291602001916105da565b820191906000526020600020905b8154815290600101906020018083116105bd57829003601f168201915b5050505050908060050160009054906101000a900460ff169080600601805461060290610ae7565b80601f016020809104026020016040519081016040528092919081815260200182805461062e90610ae7565b801561067b5780601f106106505761010080835404028352916020019161067b565b820191906000526020600020905b81548152906001019060200180831161065e57829003601f168201915b5050505050905087565b60008080549050905090565b6000604051905090565b600080fd5b600080fd5b6000819050919050565b6106b8816106a5565b81146106c357600080fd5b50565b6000813590506106d5816106af565b92915050565b600080fd5b600080fd5b6000601f19601f8301169050919050565b7f4e487b7100000000000000000000000000000000000000000000000000000000600052604160045260246000fd5b61072e826106e5565b810181811067ffffffffffffffff8211171561074d5761074c6106f6565b5b80604052505050565b6000610760610691565b905061076c8282610725565b919050565b600067ffffffffffffffff82111561078c5761078b6106f6565b5b610795826106e5565b9050602081019050919050565b82818337600083830152505050565b60006107c46107bf84610771565b610756565b9050828152602081018484840111156107e0576107df6106e0565b5b6107eb8482856107a2565b509392505050565b600082601f830112610808576108076106db565b5b81356108188482602086016107b1565b91505092915050565b60008115159050919050565b61083681610821565b811461084157600080fd5b50565b6000813590506108538161082d565b92915050565b600080600080600080600060e0888a0312156108785761087761069b565b5b60006108868a828b016106c6565b975050602088013567ffffffffffffffff8111156108a7576108a66106a0565b5b6108b38a828b016107f3565b96505060406108c48a828b016106c6565b95505060606108d58a828b016106c6565b945050608088013567ffffffffffffffff8111156108f6576108f56106a0565b5b6109028a828b016107f3565b93505060a06109138a828b01610844565b92505060c088013567ffffffffffffffff811115610934576109336106a0565b5b6109408a828b016107f3565b91505092959891949750929550565b6000602082840312156109655761096461069b565b5b6000610973848285016106c6565b91505092915050565b610985816106a5565b82525050565b600081519050919050565b600082825260208201905092915050565b60005b838110156109c55780820151818401526020810190506109aa565b60008484015250505050565b60006109dc8261098b565b6109e68185610996565b93506109f68185602086016109a7565b6109ff816106e5565b840191505092915050565b610a1381610821565b82525050565b600060e082019050610a2e600083018a61097c565b8181036020830152610a4081896109d1565b9050610a4f604083018861097c565b610a5c606083018761097c565b8181036080830152610a6e81866109d1565b9050610a7d60a0830185610a0a565b81810360c0830152610a8f81846109d1565b905098975050505050505050565b6000602082019050610ab2600083018461097c565b92915050565b7f4e487b7100000000000000000000000000000000000000000000000000000000600052602260045260246000fd5b60006002820490506001821680610aff57607f821691505b602082108103610b1257610b11610ab8565b5b50919050565b60008190508160005260206000209050919050565b60006020601f8301049050919050565b600082821b905092915050565b600060088302610b7a7fffffffffffffffffffffffffffffffffffffffffffffffffffffffffffffffff82610b3d565b610b848683610b3d565b95508019841693508086168417925050509392505050565b6000819050919050565b6000610bc1610bbc610bb7846106a5565b610b9c565b6106a5565b9050919050565b6000819050919050565b610bdb83610ba6565b610bef610be782610bc8565b848454610b4a565b825550505050565b600090565b610c04610bf7565b610c0f818484610bd2565b505050565b5b81811015610c3357610c28600082610bfc565b600181019050610c15565b5050565b601f821115610c7857610c4981610b18565b610c5284610b2d565b81016020851015610c61578190505b610c75610c6d85610b2d565b830182610c14565b50505b505050565b600082821c905092915050565b6000610c9b60001984600802610c7d565b1980831691505092915050565b6000610cb48383610c8a565b9150826002028217905092915050565b610ccd8261098b565b67ffffffffffffffff811115610ce657610ce56106f6565b5b610cf08254610ae7565b610cfb828285610c37565b600060209050601f831160018114610d2e5760008415610d1c578287015190505b610d268582610ca8565b865550610d8e565b601f198416610d3c86610b18565b60005b82811015610d6457848901518255600182019150602085019450602081019050610d3f565b86831015610d815784890151610d7d601f891682610c8a565b8355505b6001600288020188555050505b505050505050565b7f4e487b7100000000000000000000000000000000000000000000000000000000600052603260045260246000fdfea2646970667358221220c8602d33948965d4de7b05ea8b105c6bdbc6e9095239a1076e30ff6538132f1b64736f6c634300081c0033",
  "linkReferences": {},
  "deployedLinkReferences": {}
}